{
  "contractName": "LipToken",
  "abi": [
    {
      "inputs": [
        {
          "internalType": "string",
          "name": "_name",
          "type": "string"
        },
        {
          "internalType": "string",
          "name": "_symbol",
          "type": "string"
        }
      ],
      "stateMutability": "nonpayable",
      "type": "constructor"
    },
    {
      "anonymous": false,
      "inputs": [
        {
          "indexed": true,
          "internalType": "address",
          "name": "owner",
          "type": "address"
        },
        {
          "indexed": true,
          "internalType": "address",
          "name": "approved",
          "type": "address"
        },
        {
          "indexed": true,
          "internalType": "uint256",
          "name": "tokenId",
          "type": "uint256"
        }
      ],
      "name": "Approval",
      "type": "event"
    },
    {
      "anonymous": false,
      "inputs": [
        {
          "indexed": true,
          "internalType": "address",
          "name": "owner",
          "type": "address"
        },
        {
          "indexed": true,
          "internalType": "address",
          "name": "operator",
          "type": "address"
        },
        {
          "indexed": false,
          "internalType": "bool",
          "name": "approved",
          "type": "bool"
        }
      ],
      "name": "ApprovalForAll",
      "type": "event"
    },
    {
      "anonymous": false,
      "inputs": [
        {
          "indexed": true,
          "internalType": "address",
          "name": "owner",
          "type": "address"
        },
        {
          "indexed": false,
          "internalType": "uint256",
          "name": "id",
          "type": "uint256"
        },
        {
          "indexed": false,
          "internalType": "uint256",
          "name": "dna",
          "type": "uint256"
        }
      ],
      "name": "NewLip",
      "type": "event"
    },
    {
      "anonymous": false,
      "inputs": [
        {
          "indexed": true,
          "internalType": "address",
          "name": "previousOwner",
          "type": "address"
        },
        {
          "indexed": true,
          "internalType": "address",
          "name": "newOwner",
          "type": "address"
        }
      ],
      "name": "OwnershipTransferred",
      "type": "event"
    },
    {
      "anonymous": false,
      "inputs": [
        {
          "indexed": true,
          "internalType": "address",
          "name": "from",
          "type": "address"
        },
        {
          "indexed": true,
          "internalType": "address",
          "name": "to",
          "type": "address"
        },
        {
          "indexed": true,
          "internalType": "uint256",
          "name": "tokenId",
          "type": "uint256"
        }
      ],
      "name": "Transfer",
      "type": "event"
    },
    {
      "inputs": [
        {
          "internalType": "address",
          "name": "to",
          "type": "address"
        },
        {
          "internalType": "uint256",
          "name": "tokenId",
          "type": "uint256"
        }
      ],
      "name": "approve",
      "outputs": [],
      "stateMutability": "nonpayable",
      "type": "function"
    },
    {
      "inputs": [
        {
          "internalType": "address",
          "name": "owner",
          "type": "address"
        }
      ],
      "name": "balanceOf",
      "outputs": [
        {
          "internalType": "uint256",
          "name": "",
          "type": "uint256"
        }
      ],
      "stateMutability": "view",
      "type": "function",
      "constant": true
    },
    {
      "inputs": [
        {
          "internalType": "uint256",
          "name": "tokenId",
          "type": "uint256"
        }
      ],
      "name": "getApproved",
      "outputs": [
        {
          "internalType": "address",
          "name": "",
          "type": "address"
        }
      ],
      "stateMutability": "view",
      "type": "function",
      "constant": true
    },
    {
      "inputs": [
        {
          "internalType": "address",
          "name": "owner",
          "type": "address"
        },
        {
          "internalType": "address",
          "name": "operator",
          "type": "address"
        }
      ],
      "name": "isApprovedForAll",
      "outputs": [
        {
          "internalType": "bool",
          "name": "",
          "type": "bool"
        }
      ],
      "stateMutability": "view",
      "type": "function",
      "constant": true
    },
    {
      "inputs": [
        {
          "internalType": "uint256",
          "name": "",
          "type": "uint256"
        }
      ],
      "name": "lips",
      "outputs": [
        {
          "internalType": "string",
          "name": "name",
          "type": "string"
        },
        {
          "internalType": "uint256",
          "name": "id",
          "type": "uint256"
        },
        {
          "internalType": "uint256",
          "name": "dna",
          "type": "uint256"
        },
        {
          "internalType": "uint8",
          "name": "level",
          "type": "uint8"
        },
        {
          "internalType": "uint8",
          "name": "rarity",
          "type": "uint8"
        }
      ],
      "stateMutability": "view",
      "type": "function",
      "constant": true
    },
    {
      "inputs": [],
      "name": "name",
      "outputs": [
        {
          "internalType": "string",
          "name": "",
          "type": "string"
        }
      ],
      "stateMutability": "view",
      "type": "function",
      "constant": true
    },
    {
      "inputs": [],
      "name": "owner",
      "outputs": [
        {
          "internalType": "address",
          "name": "",
          "type": "address"
        }
      ],
      "stateMutability": "view",
      "type": "function",
      "constant": true
    },
    {
      "inputs": [
        {
          "internalType": "uint256",
          "name": "tokenId",
          "type": "uint256"
        }
      ],
      "name": "ownerOf",
      "outputs": [
        {
          "internalType": "address",
          "name": "",
          "type": "address"
        }
      ],
      "stateMutability": "view",
      "type": "function",
      "constant": true
    },
    {
      "inputs": [],
      "name": "renounceOwnership",
      "outputs": [],
      "stateMutability": "nonpayable",
      "type": "function"
    },
    {
      "inputs": [
        {
          "internalType": "address",
          "name": "from",
          "type": "address"
        },
        {
          "internalType": "address",
          "name": "to",
          "type": "address"
        },
        {
          "internalType": "uint256",
          "name": "tokenId",
          "type": "uint256"
        }
      ],
      "name": "safeTransferFrom",
      "outputs": [],
      "stateMutability": "nonpayable",
      "type": "function"
    },
    {
      "inputs": [
        {
          "internalType": "address",
          "name": "from",
          "type": "address"
        },
        {
          "internalType": "address",
          "name": "to",
          "type": "address"
        },
        {
          "internalType": "uint256",
          "name": "tokenId",
          "type": "uint256"
        },
        {
          "internalType": "bytes",
          "name": "_data",
          "type": "bytes"
        }
      ],
      "name": "safeTransferFrom",
      "outputs": [],
      "stateMutability": "nonpayable",
      "type": "function"
    },
    {
      "inputs": [
        {
          "internalType": "address",
          "name": "operator",
          "type": "address"
        },
        {
          "internalType": "bool",
          "name": "approved",
          "type": "bool"
        }
      ],
      "name": "setApprovalForAll",
      "outputs": [],
      "stateMutability": "nonpayable",
      "type": "function"
    },
    {
      "inputs": [
        {
          "internalType": "bytes4",
          "name": "interfaceId",
          "type": "bytes4"
        }
      ],
      "name": "supportsInterface",
      "outputs": [
        {
          "internalType": "bool",
          "name": "",
          "type": "bool"
        }
      ],
      "stateMutability": "view",
      "type": "function",
      "constant": true
    },
    {
      "inputs": [],
      "name": "symbol",
      "outputs": [
        {
          "internalType": "string",
          "name": "",
          "type": "string"
        }
      ],
      "stateMutability": "view",
      "type": "function",
      "constant": true
    },
    {
      "inputs": [
        {
          "internalType": "uint256",
          "name": "tokenId",
          "type": "uint256"
        }
      ],
      "name": "tokenURI",
      "outputs": [
        {
          "internalType": "string",
          "name": "",
          "type": "string"
        }
      ],
      "stateMutability": "view",
      "type": "function",
      "constant": true
    },
    {
      "inputs": [
        {
          "internalType": "address",
          "name": "from",
          "type": "address"
        },
        {
          "internalType": "address",
          "name": "to",
          "type": "address"
        },
        {
          "internalType": "uint256",
          "name": "tokenId",
          "type": "uint256"
        }
      ],
      "name": "transferFrom",
      "outputs": [],
      "stateMutability": "nonpayable",
      "type": "function"
    },
    {
      "inputs": [
        {
          "internalType": "address",
          "name": "newOwner",
          "type": "address"
        }
      ],
      "name": "transferOwnership",
      "outputs": [],
      "stateMutability": "nonpayable",
      "type": "function"
    },
    {
      "inputs": [
        {
          "internalType": "uint256",
          "name": "_fee",
          "type": "uint256"
        }
      ],
      "name": "updateFee",
      "outputs": [],
      "stateMutability": "nonpayable",
      "type": "function"
    },
    {
      "inputs": [],
      "name": "withdraw",
      "outputs": [],
      "stateMutability": "payable",
      "type": "function",
      "payable": true
    },
    {
      "inputs": [
        {
          "internalType": "string",
          "name": "_name",
          "type": "string"
        }
      ],
      "name": "createRandomLip",
      "outputs": [],
      "stateMutability": "payable",
      "type": "function",
      "payable": true
    },
    {
      "inputs": [],
      "name": "getLips",
      "outputs": [
        {
          "components": [
            {
              "internalType": "string",
              "name": "name",
              "type": "string"
            },
            {
              "internalType": "uint256",
              "name": "id",
              "type": "uint256"
            },
            {
              "internalType": "uint256",
              "name": "dna",
              "type": "uint256"
            },
            {
              "internalType": "uint8",
              "name": "level",
              "type": "uint8"
            },
            {
              "internalType": "uint8",
              "name": "rarity",
              "type": "uint8"
            }
          ],
          "internalType": "struct LipToken.Lip[]",
          "name": "",
          "type": "tuple[]"
        }
      ],
      "stateMutability": "view",
      "type": "function",
      "constant": true
    },
    {
      "inputs": [],
      "name": "moneySmartContract",
      "outputs": [
        {
          "internalType": "uint256",
          "name": "",
          "type": "uint256"
        }
      ],
      "stateMutability": "view",
      "type": "function",
      "constant": true
    },
    {
      "inputs": [],
      "name": "addressSmartContract",
      "outputs": [
        {
          "internalType": "address",
          "name": "",
          "type": "address"
        }
      ],
      "stateMutability": "view",
      "type": "function",
      "constant": true
    },
    {
      "inputs": [
        {
          "internalType": "address",
          "name": "_owner",
          "type": "address"
        }
      ],
      "name": "getOwnerLips",
      "outputs": [
        {
          "components": [
            {
              "internalType": "string",
              "name": "name",
              "type": "string"
            },
            {
              "internalType": "uint256",
              "name": "id",
              "type": "uint256"
            },
            {
              "internalType": "uint256",
              "name": "dna",
              "type": "uint256"
            },
            {
              "internalType": "uint8",
              "name": "level",
              "type": "uint8"
            },
            {
              "internalType": "uint8",
              "name": "rarity",
              "type": "uint8"
            }
          ],
          "internalType": "struct LipToken.Lip[]",
          "name": "",
          "type": "tuple[]"
        }
      ],
      "stateMutability": "view",
      "type": "function",
      "constant": true
    },
    {
      "inputs": [
        {
          "internalType": "uint256",
          "name": "_lipId",
          "type": "uint256"
        }
      ],
      "name": "levelUp",
      "outputs": [],
      "stateMutability": "nonpayable",
      "type": "function"
    }
  ],
  "bytecode": "0x6080604052670de0b6b3a76400006008553480156200001d57600080fd5b506040516200279b3803806200279b833981016040819052620000409162000255565b81518290829062000059906000906020850190620000fc565b5080516200006f906001906020840190620000fc565b5050506200009e6200008f620000a6640100000000026401000000009004565b640100000000620000aa810204565b505062000341565b3390565b60068054600160a060020a03838116600160a060020a0319831681179093556040519116919082907f8be0079c531659141344cd1fd0a4f28419497f9722a3daafe3b4186f6b6457e090600090a35050565b8280546200010a90620002bc565b90600052602060002090601f0160209004810192826200012e576000855562000179565b82601f106200014957805160ff191683800117855562000179565b8280016001018555821562000179579182015b82811115620001795782518255916020019190600101906200015c565b50620001879291506200018b565b5090565b5b808211156200018757600081556001016200018c565b600082601f830112620001b3578081fd5b81516001604060020a0380821115620001d057620001d062000312565b604051601f8301601f19908116603f01168101908282118183101715620001fb57620001fb62000312565b8160405283815260209250868385880101111562000217578485fd5b8491505b838210156200023a57858201830151818301840152908201906200021b565b838211156200024b57848385830101525b9695505050505050565b6000806040838503121562000268578182fd5b82516001604060020a03808211156200027f578384fd5b6200028d86838701620001a2565b93506020850151915080821115620002a3578283fd5b50620002b285828601620001a2565b9150509250929050565b600281046001821680620002d157607f821691505b602082108114156200030c577f4e487b7100000000000000000000000000000000000000000000000000000000600052602260045260246000fd5b50919050565b7f4e487b7100000000000000000000000000000000000000000000000000000000600052604160045260246000fd5b61244a80620003516000396000f3fe608060405260043610610183576000357c010000000000000000000000000000000000000000000000000000000090048063715018a6116100ee57806399470ee6116100a7578063c2f5168a11610081578063c2f5168a1461041e578063c87b56dd14610433578063e985e9c514610453578063f2fde38b1461047357610183565b806399470ee6146103c9578063a22cb465146103de578063b88d4fde146103fe57610183565b8063715018a61461032857806383b5daf71461033d5780638c0b9c541461035f5780638da5cb5b1461037f5780639012c4a81461039457806395d89b41146103b457610183565b80633ccfd60b116101405780633ccfd60b1461026f57806342842e0e146102775780635ec163db146102975780636352211e146102c8578063698d640c146102e857806370a08231146102fb57610183565b806301ffc9a71461018857806306fdde03146101be578063081812fc146101e0578063095ea7b31461020d5780630ce90ec21461022f57806323b872dd1461024f575b600080fd5b34801561019457600080fd5b506101a86101a3366004611b12565b610493565b6040516101b59190611d14565b60405180910390f35b3480156101ca57600080fd5b506101d361050d565b6040516101b59190611d1f565b3480156101ec57600080fd5b506102006101fb366004611b90565b61059f565b6040516101b59190611c29565b34801561021957600080fd5b5061022d610228366004611ae9565b6105ee565b005b34801561023b57600080fd5b5061022d61024a366004611b90565b61068c565b34801561025b57600080fd5b5061022d61026a3660046119fb565b610714565b61022d61074f565b34801561028357600080fd5b5061022d6102923660046119fb565b6107d8565b3480156102a357600080fd5b506102b76102b2366004611b90565b6107f3565b6040516101b5959493929190611d32565b3480156102d457600080fd5b506102006102e3366004611b90565b6108c9565b61022d6102f6366004611b4a565b610901565b34801561030757600080fd5b5061031b6103163660046119af565b61091c565b6040516101b591906122a0565b34801561033457600080fd5b5061022d610963565b34801561034957600080fd5b506103526109b1565b6040516101b59190611c79565b34801561036b57600080fd5b5061035261037a3660046119af565b610ad7565b34801561038b57600080fd5b50610200610cd2565b3480156103a057600080fd5b5061022d6103af366004611b90565b610ce1565b3480156103c057600080fd5b506101d3610d28565b3480156103d557600080fd5b5061031b610d37565b3480156103ea57600080fd5b5061022d6103f9366004611aaf565b610d3c565b34801561040a57600080fd5b5061022d610419366004611a36565b610d4e565b34801561042a57600080fd5b50610200610d90565b34801561043f57600080fd5b506101d361044e366004611b90565b610d94565b34801561045f57600080fd5b506101a861046e3660046119c9565b610e1a565b34801561047f57600080fd5b5061022d61048e3660046119af565b610e48565b6000600160e060020a031982167f80ac58cd0000000000000000000000000000000000000000000000000000000014806104f65750600160e060020a031982167f5b5e139f00000000000000000000000000000000000000000000000000000000145b80610505575061050582610ebc565b90505b919050565b60606000805461051c90612326565b80601f016020809104026020016040519081016040528092919081815260200182805461054890612326565b80156105955780601f1061056a57610100808354040283529160200191610595565b820191906000526020600020905b81548152906001019060200180831161057857829003601f168201915b5050505050905090565b60006105aa82610eee565b6105d25760405160e560020a62461bcd0281526004016105c9906120f7565b60405180910390fd5b50600090815260046020526040902054600160a060020a031690565b60006105f9826108c9565b905080600160a060020a031683600160a060020a031614156106305760405160e560020a62461bcd0281526004016105c9906121e6565b80600160a060020a0316610642610f0b565b600160a060020a0316148061065e575061065e8161046e610f0b565b61067d5760405160e560020a62461bcd0281526004016105c990611fab565b6106878383610f0f565b505050565b33610696826108c9565b600160a060020a0316146106a957600080fd5b6000600982815481106106cf5760e060020a634e487b7102600052603260045260246000fd5b6000918252602082206003600490920201908101805491935060ff909116916106f78361237f565b91906101000a81548160ff021916908360ff160217905550505050565b61072561071f610f0b565b82610f8a565b6107445760405160e560020a62461bcd0281526004016105c990612243565b610687838383611012565b610757610f0b565b600160a060020a0316610768610cd2565b600160a060020a0316146107915760405160e560020a62461bcd0281526004016105c990612154565b600061079b610cd2565b604051909150600160a060020a03821690303180156108fc02916000818181858888f193505050501580156107d4573d6000803e3d6000fd5b5050565b61068783838360405180602001604052806000815250610d4e565b6009818154811061080357600080fd5b906000526020600020906004020160009150905080600001805461082690612326565b80601f016020809104026020016040519081016040528092919081815260200182805461085290612326565b801561089f5780601f106108745761010080835404028352916020019161089f565b820191906000526020600020905b81548152906001019060200180831161088257829003601f168201915b50505050600183015460028401546003909401549293909290915060ff8082169161010090041685565b600081815260026020526040812054600160a060020a0316806105055760405160e560020a62461bcd0281526004016105c990612065565b60085434101561091057600080fd5b61091981611158565b50565b6000600160a060020a0382166109475760405160e560020a62461bcd0281526004016105c990612008565b50600160a060020a031660009081526003602052604090205490565b61096b610f0b565b600160a060020a031661097c610cd2565b600160a060020a0316146109a55760405160e560020a62461bcd0281526004016105c990612154565b6109af60006112ad565b565b60606009805480602002602001604051908101604052809291908181526020016000905b82821015610ace57838290600052602060002090600402016040518060a0016040529081600082018054610a0890612326565b80601f0160208091040260200160405190810160405280929190818152602001828054610a3490612326565b8015610a815780601f10610a5657610100808354040283529160200191610a81565b820191906000526020600020905b815481529060010190602001808311610a6457829003601f168201915b50505091835250506001828101546020808401919091526002840154604084015260039093015460ff808216606085015261010090910416608090920191909152918352920191016109d5565b50505050905090565b60606000610ae48361091c565b67ffffffffffffffff811115610b0d5760e060020a634e487b7102600052604160045260246000fd5b604051908082528060200260200182016040528015610b4657816020015b610b33611854565b815260200190600190039081610b2b5790505b5090506000805b600954811015610cc95784600160a060020a0316610b6a826108c9565b600160a060020a03161415610cb75760098181548110610b9d5760e060020a634e487b7102600052603260045260246000fd5b90600052602060002090600402016040518060a0016040529081600082018054610bc690612326565b80601f0160208091040260200160405190810160405280929190818152602001828054610bf290612326565b8015610c3f5780601f10610c1457610100808354040283529160200191610c3f565b820191906000526020600020905b815481529060010190602001808311610c2257829003601f168201915b5050509183525050600182015460208201526002820154604082015260039091015460ff8082166060840152610100909104166080909101528351849084908110610c9d5760e060020a634e487b7102600052603260045260246000fd5b60200260200101819052508180610cb390612364565b9250505b80610cc181612364565b915050610b4d565b50909392505050565b600654600160a060020a031690565b610ce9610f0b565b600160a060020a0316610cfa610cd2565b600160a060020a031614610d235760405160e560020a62461bcd0281526004016105c990612154565b600855565b60606001805461051c90612326565b303190565b6107d4610d47610f0b565b838361130c565b610d5f610d59610f0b565b83610f8a565b610d7e5760405160e560020a62461bcd0281526004016105c990612243565b610d8a848484846113b2565b50505050565b3090565b6060610d9f82610eee565b610dbe5760405160e560020a62461bcd0281526004016105c990612189565b6000610dc86113e8565b90506000815111610de85760405180602001604052806000815250610e13565b80610df2846113fa565b604051602001610e03929190611bd4565b6040516020818303038152906040525b9392505050565b600160a060020a03918216600090815260056020908152604080832093909416825291909152205460ff1690565b610e50610f0b565b600160a060020a0316610e61610cd2565b600160a060020a031614610e8a5760405160e560020a62461bcd0281526004016105c990612154565b600160a060020a038116610eb35760405160e560020a62461bcd0281526004016105c990611dc9565b610919816112ad565b600160e060020a031981167f01ffc9a70000000000000000000000000000000000000000000000000000000014919050565b600090815260026020526040902054600160a060020a0316151590565b3390565b6000818152600460205260409020805473ffffffffffffffffffffffffffffffffffffffff1916600160a060020a0384169081179091558190610f51826108c9565b600160a060020a03167f8c5be1e5ebec7d5bd14f71427d1e84f3dd0314c0f7b2291e5b200ac8c7c3b92560405160405180910390a45050565b6000610f9582610eee565b610fb45760405160e560020a62461bcd0281526004016105c990611f4e565b6000610fbf836108c9565b905080600160a060020a031684600160a060020a03161480610ffa575083600160a060020a0316610fef8461059f565b600160a060020a0316145b8061100a575061100a8185610e1a565b949350505050565b82600160a060020a0316611025826108c9565b600160a060020a03161461104e5760405160e560020a62461bcd0281526004016105c990611e26565b600160a060020a0382166110775760405160e560020a62461bcd0281526004016105c990611eba565b611082838383610687565b61108d600082610f0f565b600160a060020a03831660009081526003602052604081208054600192906110b69084906122e3565b9091555050600160a060020a03821660009081526003602052604081208054600192906110e49084906122b7565b9091555050600081815260026020526040808220805473ffffffffffffffffffffffffffffffffffffffff1916600160a060020a0386811691821790925591518493918716917fddf252ad1be2c89b69c2b068fc378daa952ba7f163c4a11628f55a4df523b3ef91a4610687838383610687565b6000611164606461156e565b90506000611178662386f26fc1000061156e565b6040805160a08101825285815260075460208083019190915291810183905260016060820181905260ff86166080830152600980549182018155600052815180519495509193849360049092027f6e1540171b6c0c960b71a7020d9f60077f6af931a8bbf590da0223dacf75c7af01926111f6928492910190611889565b50602082015160018201556040820151600282015560608201516003909101805460809093015160ff9081166101000261ff00199190931660ff19909416939093179290921617905560075461124d9033906115a8565b33600160a060020a03167f24d2d558f98bdd9d21339e119fc0b03e213c7d05affd838ac2ee136d90e3bbeb6007548460405161128a9291906122a9565b60405180910390a2600780549060006112a283612364565b919050555050505050565b60068054600160a060020a0383811673ffffffffffffffffffffffffffffffffffffffff19831681179093556040519116919082907f8be0079c531659141344cd1fd0a4f28419497f9722a3daafe3b4186f6b6457e090600090a35050565b81600160a060020a031683600160a060020a031614156113415760405160e560020a62461bcd0281526004016105c990611f17565b600160a060020a0383811660008181526005602090815260408083209487168084529490915290819020805460ff1916851515179055517f17307eab39ab6107e8899845ad3d59bd9653f200f220920489ca2b5937696c31906113a5908590611d14565b60405180910390a3505050565b6113bd848484611012565b6113c9848484846115c2565b610d8a5760405160e560020a62461bcd0281526004016105c990611d6c565b60408051602081019091526000815290565b60608161143b575060408051808201909152600181527f30000000000000000000000000000000000000000000000000000000000000006020820152610508565b8160005b8115611465578061144f81612364565b915061145e9050600a836122cf565b915061143f565b60008167ffffffffffffffff8111156114915760e060020a634e487b7102600052604160045260246000fd5b6040519080825280601f01601f1916602001820160405280156114bb576020820181803683370190505b5090505b841561100a576114d06001836122e3565b91506114dd600a8661239f565b6114e89060306122b7565b7f01000000000000000000000000000000000000000000000000000000000000000281838151811061152d5760e060020a634e487b7102600052603260045260246000fd5b60200101907effffffffffffffffffffffffffffffffffffffffffffffffffffffffffffff1916908160001a905350611567600a866122cf565b94506114bf565b6000804233604051602001611584929190611c03565b60408051601f1981840301815291905280516020909101209050610e13838261239f565b6107d4828260405180602001604052806000815250611715565b60006115d684600160a060020a031661174b565b1561170a5783600160a060020a031663150b7a026115f2610f0b565b8786866040518563ffffffff167c01000000000000000000000000000000000000000000000000000000000281526004016116309493929190611c3d565b602060405180830381600087803b15801561164a57600080fd5b505af192505050801561167a575060408051601f3d908101601f1916820190925261167791810190611b2e565b60015b6116d7573d8080156116a8576040519150601f19603f3d011682016040523d82523d6000602084013e6116ad565b606091505b5080516116cf5760405160e560020a62461bcd0281526004016105c990611d6c565b805181602001fd5b600160e060020a0319167f150b7a020000000000000000000000000000000000000000000000000000000014905061100a565b506001949350505050565b61171f838361175a565b61172c60008484846115c2565b6106875760405160e560020a62461bcd0281526004016105c990611d6c565b600160a060020a03163b151590565b600160a060020a0382166117835760405160e560020a62461bcd0281526004016105c9906120c2565b61178c81610eee565b156117ac5760405160e560020a62461bcd0281526004016105c990611e83565b6117b860008383610687565b600160a060020a03821660009081526003602052604081208054600192906117e19084906122b7565b9091555050600081815260026020526040808220805473ffffffffffffffffffffffffffffffffffffffff1916600160a060020a03861690811790915590518392907fddf252ad1be2c89b69c2b068fc378daa952ba7f163c4a11628f55a4df523b3ef908290a46107d460008383610687565b6040518060a00160405280606081526020016000815260200160008152602001600060ff168152602001600060ff1681525090565b82805461189590612326565b90600052602060002090601f0160209004810192826118b757600085556118fd565b82601f106118d057805160ff19168380011785556118fd565b828001600101855582156118fd579182015b828111156118fd5782518255916020019190600101906118e2565b5061190992915061190d565b5090565b5b80821115611909576000815560010161190e565b600067ffffffffffffffff8084111561193d5761193d6123e5565b604051601f8501601f19908116603f01168101908282118183101715611965576119656123e5565b8160405280935085815286868601111561197e57600080fd5b858560208301376000602087830101525050509392505050565b8035600160a060020a038116811461050857600080fd5b6000602082840312156119c0578081fd5b610e1382611998565b600080604083850312156119db578081fd5b6119e483611998565b91506119f260208401611998565b90509250929050565b600080600060608486031215611a0f578081fd5b611a1884611998565b9250611a2660208501611998565b9150604084013590509250925092565b60008060008060808587031215611a4b578081fd5b611a5485611998565b9350611a6260208601611998565b925060408501359150606085013567ffffffffffffffff811115611a84578182fd5b8501601f81018713611a94578182fd5b611aa387823560208401611922565b91505092959194509250565b60008060408385031215611ac1578182fd5b611aca83611998565b915060208301358015158114611ade578182fd5b809150509250929050565b60008060408385031215611afb578182fd5b611b0483611998565b946020939093013593505050565b600060208284031215611b23578081fd5b8135610e13816123fe565b600060208284031215611b3f578081fd5b8151610e13816123fe565b600060208284031215611b5b578081fd5b813567ffffffffffffffff811115611b71578182fd5b8201601f81018413611b81578182fd5b61100a84823560208401611922565b600060208284031215611ba1578081fd5b5035919050565b60008151808452611bc08160208601602086016122fa565b601f01601f19169290920160200192915050565b60008351611be68184602088016122fa565b835190830190611bfa8183602088016122fa565b01949350505050565b918252600160a060020a03166c0100000000000000000000000002602082015260340190565b600160a060020a0391909116815260200190565b6000600160a060020a03808716835280861660208401525083604083015260806060830152611c6f6080830184611ba8565b9695505050505050565b60208082528251828201819052600091906040908185019080840286018301878501865b83811015611d0657603f19898403018552815160a08151818652611cc382870182611ba8565b838b0151878c0152898401518a88015260608085015160ff9081169189019190915260809485015116939096019290925250509386019390860190600101611c9d565b509098975050505050505050565b901515815260200190565b600060208252610e136020830184611ba8565b600060a08252611d4560a0830188611ba8565b602083019690965250604081019390935260ff918216606084015216608090910152919050565b60208082526032908201527f4552433732313a207472616e7366657220746f206e6f6e20455243373231526560408201527f63656976657220696d706c656d656e7465720000000000000000000000000000606082015260800190565b60208082526026908201527f4f776e61626c653a206e6577206f776e657220697320746865207a65726f206160408201527f6464726573730000000000000000000000000000000000000000000000000000606082015260800190565b60208082526025908201527f4552433732313a207472616e736665722066726f6d20696e636f72726563742060408201527f6f776e6572000000000000000000000000000000000000000000000000000000606082015260800190565b6020808252601c908201527f4552433732313a20746f6b656e20616c7265616479206d696e74656400000000604082015260600190565b60208082526024908201527f4552433732313a207472616e7366657220746f20746865207a65726f2061646460408201527f7265737300000000000000000000000000000000000000000000000000000000606082015260800190565b60208082526019908201527f4552433732313a20617070726f766520746f2063616c6c657200000000000000604082015260600190565b6020808252602c908201527f4552433732313a206f70657261746f7220717565727920666f72206e6f6e657860408201527f697374656e7420746f6b656e0000000000000000000000000000000000000000606082015260800190565b60208082526038908201527f4552433732313a20617070726f76652063616c6c6572206973206e6f74206f7760408201527f6e6572206e6f7220617070726f76656420666f7220616c6c0000000000000000606082015260800190565b6020808252602a908201527f4552433732313a2062616c616e636520717565727920666f7220746865207a6560408201527f726f206164647265737300000000000000000000000000000000000000000000606082015260800190565b60208082526029908201527f4552433732313a206f776e657220717565727920666f72206e6f6e657869737460408201527f656e7420746f6b656e0000000000000000000000000000000000000000000000606082015260800190565b6020808252818101527f4552433732313a206d696e7420746f20746865207a65726f2061646472657373604082015260600190565b6020808252602c908201527f4552433732313a20617070726f76656420717565727920666f72206e6f6e657860408201527f697374656e7420746f6b656e0000000000000000000000000000000000000000606082015260800190565b6020808252818101527f4f776e61626c653a2063616c6c6572206973206e6f7420746865206f776e6572604082015260600190565b6020808252602f908201527f4552433732314d657461646174613a2055524920717565727920666f72206e6f60408201527f6e6578697374656e7420746f6b656e0000000000000000000000000000000000606082015260800190565b60208082526021908201527f4552433732313a20617070726f76616c20746f2063757272656e74206f776e6560408201527f7200000000000000000000000000000000000000000000000000000000000000606082015260800190565b60208082526031908201527f4552433732313a207472616e736665722063616c6c6572206973206e6f74206f60408201527f776e6572206e6f7220617070726f766564000000000000000000000000000000606082015260800190565b90815260200190565b918252602082015260400190565b600082198211156122ca576122ca6123b3565b500190565b6000826122de576122de6123cc565b500490565b6000828210156122f5576122f56123b3565b500390565b60005b838110156123155781810151838201526020016122fd565b83811115610d8a5750506000910152565b60028104600182168061233a57607f821691505b6020821081141561235e5760e060020a634e487b7102600052602260045260246000fd5b50919050565b6000600019821415612378576123786123b3565b5060010190565b600060ff821660ff811415612396576123966123b3565b60010192915050565b6000826123ae576123ae6123cc565b500690565b60e060020a634e487b7102600052601160045260246000fd5b60e060020a634e487b7102600052601260045260246000fd5b60e060020a634e487b7102600052604160045260246000fd5b600160e060020a03198116811461091957600080fdfea2646970667358221220d44e69826b756507f1f52bd8fe0286e8286d32763fee418531e473dd86fe5ad064736f6c63430008010033",
  "immutableReferences": {},
  "source": "// SPDX-License-Identifier: MIT\npragma solidity ^0.8.0;\n\n// Importacin de los Smart Contract: ERC721.sol y Ownable.sol\nimport \"@openzeppelin/contracts/token/ERC721/ERC721.sol\";\nimport \"@openzeppelin/contracts/access/Ownable.sol\";\n\n// Creacin del Smart Contract para el Videojuego NFT\ncontract LipToken is ERC721, Ownable {\n\n    // Constructor de mi Smart Contract\n    constructor (string memory _name, string memory _symbol)\n    ERC721(_name, _symbol) {}\n\n    // ============================================\n    // Declaraciones iniciales\n\n    // Contador de tokens NFT\n    uint256 COUNTER;\n    // Fijacin en el precio de los Tokens NFT\n    uint256 fee = 1 ether;\n    // Estructura de datos con las propiedades del lip (labio)\n    struct Lip {\n        string name;\n        uint256 id;\n        uint256 dna;\n        uint8 level;\n        uint8 rarity;\n    }\n    // Estructura de almacenamiento\n    Lip [] public lips;\n    // Declaracin de un evento \n    event NewLip(address indexed owner, uint256 id, uint256 dna);\n\n    // ============================================\n    // Funciones de ayuda \n\n    // Asignacin de un nmero aleatorio\n    function _createRandomNum(uint256 _mod) internal view returns (uint256) {\n        uint256 randomNum = uint256(keccak256(abi.encodePacked(block.timestamp, msg.sender)));\n        return randomNum % _mod; \n    }\n\n    // Actualizacin del precio del Token NFT\n    function updateFee(uint256 _fee) external onlyOwner {\n        fee = _fee;\n    }\n\n    // Extraccin de los ethers del Smart Contract hacia el Owner \n    function withdraw() external payable onlyOwner {\n        address payable _owner = payable(owner());\n        _owner.transfer(address(this).balance);\n    }\n\n    // Creacin del Token NFT (lip/labio)\n    function _createLip(string memory _name) internal {\n        uint8 randRarity = uint8(_createRandomNum(100));\n        uint randDna = _createRandomNum(10**16);\n        Lip memory newLip = Lip(_name, COUNTER, randDna, 1, randRarity);\n        lips.push(newLip);\n        _safeMint(msg.sender, COUNTER);\n        emit NewLip(msg.sender, COUNTER, randDna);\n        COUNTER++;\n    }\n\n    // ============================================\n    // Creacin de un labio aleatorio\n    function createRandomLip(string memory _name) public payable {\n        require(msg.value >= fee);\n        _createLip(_name);\n    }\n\n    // Obtencin de todos los lips (labios)\n    function getLips() public view returns (Lip [] memory) {\n        return lips;\n    }\n\n    // Visualizar el balance del Smart Contract \n    function moneySmartContract() public view returns (uint256){\n        return address(this).balance;\n    }\n\n    // Visualizar la direccin del Smart Contract\n    function addressSmartContract() public view returns (address) {\n        return address(this);\n    }\n\n    // Obtencin de los tokens NFT usuario\n    function getOwnerLips(address _owner) public view returns (Lip [] memory) {\n        Lip [] memory result = new Lip [] (balanceOf(_owner));\n        uint256 counter = 0;\n        for (uint256 i = 0; i <lips.length; i++) {\n            if (ownerOf(i) == _owner) {\n                result[counter] = lips[i];\n                counter++;\n            }\n        }\n        return result;\n    }\n\n    // Subir de nivel los tokens NFT \n    function levelUp(uint256 _lipId) public {\n        require(ownerOf(_lipId) == msg.sender);\n        Lip storage lip = lips[_lipId];\n        lip.level++;\n    }\n\n\n}",
  "sourcePath": "C:\\Users\\AUTIS\\Google Drive\\30_Football\\10_Formaciones\\02_NFTS_Videojuegos\\nft-football\\nft-football\\contracts\\LipToken.sol",
  "compiler": {
    "name": "solc",
    "version": "0.8.1+commit.df193b15.Emscripten.clang"
  },
  "schemaVersion": "3.4.4",
  "updatedAt": "2022-02-16T15:44:52.273Z",
  "networkType": "ethereum",
  "devdoc": {
    "kind": "dev",
    "methods": {
      "approve(address,uint256)": {
        "details": "See {IERC721-approve}."
      },
      "balanceOf(address)": {
        "details": "See {IERC721-balanceOf}."
      },
      "getApproved(uint256)": {
        "details": "See {IERC721-getApproved}."
      },
      "isApprovedForAll(address,address)": {
        "details": "See {IERC721-isApprovedForAll}."
      },
      "name()": {
        "details": "See {IERC721Metadata-name}."
      },
      "owner()": {
        "details": "Returns the address of the current owner."
      },
      "ownerOf(uint256)": {
        "details": "See {IERC721-ownerOf}."
      },
      "renounceOwnership()": {
        "details": "Leaves the contract without owner. It will not be possible to call `onlyOwner` functions anymore. Can only be called by the current owner. NOTE: Renouncing ownership will leave the contract without an owner, thereby removing any functionality that is only available to the owner."
      },
      "safeTransferFrom(address,address,uint256)": {
        "details": "See {IERC721-safeTransferFrom}."
      },
      "safeTransferFrom(address,address,uint256,bytes)": {
        "details": "See {IERC721-safeTransferFrom}."
      },
      "setApprovalForAll(address,bool)": {
        "details": "See {IERC721-setApprovalForAll}."
      },
      "supportsInterface(bytes4)": {
        "details": "See {IERC165-supportsInterface}."
      },
      "symbol()": {
        "details": "See {IERC721Metadata-symbol}."
      },
      "tokenURI(uint256)": {
        "details": "See {IERC721Metadata-tokenURI}."
      },
      "transferFrom(address,address,uint256)": {
        "details": "See {IERC721-transferFrom}."
      },
      "transferOwnership(address)": {
        "details": "Transfers ownership of the contract to a new account (`newOwner`). Can only be called by the current owner."
      }
    },
    "version": 1
  },
  "userdoc": {
    "kind": "user",
    "methods": {},
    "version": 1
  }
}